:100000000C942A000C9447000C9447000C94470071
:100010000C946A050C9441050C9447000C94180547
:100020000C9447000C94EF040C94C6040C949D04AB
:100030000C9447000C9440060C9447000C94470025
:100040000C9447000C9447000C9447000C94470014
:100050000C94470011241FBECFE5D8E0DEBFCDBF12
:1000600011E0A0E6B0E0ECE3FBE102C005900D92E8
:10007000AE39B107D9F721E0AEE9B1E001C01D9278
:10008000A63EB207E1F70E94A80C0C949C0D0C94BC
:100090000000CF93DF9300D000D0CDB7DEB71C8235
:1000A0001B822B813C812817390738F00F900F9065
:1000B0000F900F90DF91CF9108951A8219822981B4
:1000C0003A812037374138F02B813C812F5F3F4FF9
:1000D0003C832B83E6CF000029813A812F5F3F4F7D
:1000E0003A832983ECCF0E9401068DE291E00C94C3
:1000F0000106EF92FF921F93CF93DF9300D000D0C1
:1001000000D0CDB7DEB77B010E94010686E0EAE6AB
:10011000F0E0DE01119601900D928A95E1F7E1146D
:10012000F10499F48CEF90E00E9401068DE291E0D9
:1001300026960FB6F894DEBF0FBECDBFDF91CF91EC
:100140001F91FF90EF900C940106FE01319610E094
:100150002AE030E01F5FC701B9010E94570D805DA2
:1001600081937B01672B11F01530A1F71150E1E06D
:10017000F0E0EC0FFD1FE10FF11D80810E94E10511
:100180001111F4CFD3CFCF93DF93CDB7DEB729973B
:100190000FB6F894DEBF0FBECDBF1E821D821C823B
:1001A0001B821A821982198618861F82AE014F5F40
:1001B0005F4FBE016D5F7F4FCE0105960E94B80B69
:1001C000892BD1F5BE01675F7F4F8D819E810E9493
:1001D000E50BBE01685F7F4F8B819C810E94020C02
:1001E000BE01695F7F4F89819A810E94020C6D81F7
:1001F0007E818EEF90E00E947900698570E089E051
:1002000091E00E947900688570E083E191E00E94AE
:1002100079006F8170E08DE191E00E94790087E2C2
:1002200091E00E94010629960FB6F894DEBF0FBE3A
:10023000CDBFDF91CF91089580E391E0F2CFCF93CE
:10024000DF93CDB7DEB764970FB6F894DEBF0FBE6D
:10025000CDBF8AE0E0E7F0E0DE011B9601900D9251
:100260008A95E1F78AE0EAE7F0E0DE011196019075
:100270000D928A95E1F7CE010B960E9493050E949C
:10028000A60B892B29F085E491E00E940106FFCF9F
:100290000E941F0CCE0101960E942C03892B29F08D
:1002A0008AE591E00E940106FFCF43E65CE061E051
:1002B00070E090E080E00E947E0461E070E090E0F9
:1002C00080E00E940B040E94950468EE73E083ECCA
:1002D00090E00E94300C892B29F08EE691E00E947C
:1002E0000106FFCF8AE891E00E9401060E946D0C92
:1002F000FDCFFC01892BF1F03E983F98808180FD75
:100300003E9A808181FD3F9A3D98389839983A9875
:100310003B983C98309831983298818180FD309A92
:10032000818181FD319A818182FD329A379A90E0F4
:1003300080E0089581E090E00895379890E080E0B3
:100340000895883088F4389839983A983B983C98C2
:1003500080FD389A81FD399A8695869509F03A9AFA
:10036000369A90E080E0089581E090E0089586B1AB
:100370008295869586958370809581700895009703
:1003800059F034B125B1232732272327FC013183CB
:10039000208390E080E0089581E090E00895CF937D
:1003A000DF93EB010E94A101009749F40E94B7017D
:1003B0008823E1F3CE01DF91CF910C94BF01DF914F
:1003C000CF910895843030F4683020F4442329F02C
:1003D0004130C9F081E090E00895E82FF0E0EE0FA1
:1003E000FF1FEC57FF4F0190F081E02D208181E04D
:1003F00090E001C0880F6A95EAF780958223808398
:1004000090E080E00895E82FF0E0EE0FFF1FEC573A
:10041000FF4F0190F081E02D808121E030E001C0AC
:10042000220F6A95EAF7822BEACF843020F4662304
:1004300029F0613081F081E090E00895E82FF0E04C
:10044000EE0FFF1FEC57FF4F0190F081E02D10825F
:1004500090E080E00895E82FF0E0EE0FFF1FEC57EA
:10046000FF4F0190F081E02D8FEF8083F1CF84303A
:10047000D0F46830C0F4E3E3F0E0823051F0E0E320
:10048000F0E0833031F0E6E3F0E0813011F0E9E3B1
:10049000F0E0808190E002C0959587956A95E2F73B
:1004A00081709927089590E080E00895843070F479
:1004B000823041F0833041F0813011F089B30895EA
:1004C00086B3089583B3089580B3089580E00895B6
:1004D0008430E0F46830D0F4E5E3F0E0823051F0AD
:1004E000E2E3F0E0833031F0EBE3F0E0813011F44F
:1004F000E8E3F0E0808121E030E001C0220F6A955E
:10050000EAF78227808390E080E0089581E090E020
:100510000895843008F56830F8F4E5E3F0E08230BF
:1005200051F0E2E3F0E0833031F0EBE3F0E08130D2
:1005300011F4E8E3F0E081E090E001C0880F6A95F3
:10054000EAF79081411106C080958923808390E06D
:1005500080E00895892BFACF81E090E008958430FF
:1005600090F4E5E3F0E0823051F0E2E3F0E0833034
:1005700031F0EBE3F0E0813011F4E8E3F0E0608388
:1005800090E080E0089581E090E0089581E090E0BF
:10059000089581E090E0089581E090E0089581E081
:1005A00090E0089581E090E0089581E090E0089562
:1005B00081E090E0089581E090E0089580E0089562
:1005C00081E090E0089581E090E0089581E090E07E
:1005D000089581E090E0089581E090E0089581E041
:1005E00090E0089581E090E008950895089581E0F5
:1005F00090E0089581E090E0089581E090E0089512
:1006000081E090E0089581E090E0089581E090E03D
:10061000089583309105E8F467708130910559F0B1
:10062000029781F083B7887F83BF83B7682B63BF4E
:1006300090E080E008958EB5887F8EBD8EB5682BE2
:100640006EBDF6CF85B5887F85BD85B5682B65BD48
:10065000EFCF81E090E00895FC01892B09F442C0BE
:100660002081318123303105E8F582819381211584
:100670003105D9F022303105D9F12FB52E7F2FBDAC
:100680002FB52D7F2FBD2EB5277F2EBD2EB52F7EEA
:100690002EBD8130910509F447C0E0F0029709F4BE
:1006A00040C08FB581608FBD15C08130910561F06C
:1006B00028F00297D1F083B7806402C083B78F7BA4
:1006C00083BF83B7877F05C083B78F7B83BF83B723
:1006D000886083BF808191818130910599F140F1DB
:1006E0000297C9F181E090E0089583B78064EECF6E
:1006F0008130910561F028F0029781F085B5806422
:1007000002C085B58F7B85BD85B5877F05C085B562
:100710008F7B85BD85B5886085BDDCCF85B5806460
:10072000F8CF8FB581608FBD8EB588608EBDD2CF7A
:10073000868182BF80858CBF648175818081918133
:100740000C940903868197819DBD8CBD8085918520
:100750009BBD8ABDF1CF868184BD808583BDECCFF2
:100760008330910598F48130910541F0029751F062
:1007700083B7887F83BF90E080E008958EB5887F3F
:100780008EBDF9CF85B5887F85BDF5CF81E090E03E
:1007900008958330910570F48130910531F002970E
:1007A00039F062BF90E080E008957DBD6CBDFACF66
:1007B00064BDF8CF81E090E00895FB01833091059E
:1007C00098F4309789F08130910529F0029751F023
:1007D00082B790E002C08CB59DB59183808390E094
:1007E00080E0089584B5F5CF81E090E008958330EE
:1007F000910570F48130910531F0029739F06CBFAA
:1008000090E080E008957BBD6ABDFACF63BDF8CF6C
:1008100081E090E0089583309105D8F4813091050E
:1008200061F0029781F089B791E0672B09F092E0BF
:10083000892B89BF90E080E0089589B790E1672B0C
:10084000B9F794E0F5CF89B790E8672B89F790E482
:10085000EFCF81E090E0089583309105D8F48130A6
:10086000910561F0029781F089B79EEF672B09F03F
:100870009DEF892389BF90E080E0089589B79FEEBE
:10088000672BB9F79BEFF5CF89B79FE7672B89F700
:100890009FEBEFCF81E090E00895CF93DF9383301B
:1008A000910548F5EC0170E060E00E942C0461E0E5
:1008B00070E0CE010E942C04C130D105A1F0C230FD
:1008C000D105B1F013BE12BECC0FDD1FCC0FDD1F62
:1008D000C256DE4F198218821B821A8290E080E095
:1008E000DF91CF9108951FBC1EBC1DBC1CBCECCF7A
:1008F00015BC14BCE9CF81E090E0F2CF83309105C4
:1009000088F44115510571F0FC01EE0FFF1FE60F51
:10091000F71FEE0FFF1FE256FE4F5183408390E01A
:1009200080E0089581E090E008958FB780688FBFE0
:1009300008958FB78F778FBF08951F920F920FB6CC
:100940000F9211242F933F934F935F936F937F9355
:100950008F939F93AF93BF93EF93FF93E0919E018B
:10096000F0919F01309709F00995FF91EF91BF91A8
:10097000AF919F918F917F916F915F914F913F9137
:100980002F910F900FBE0F901F9018951F920F92EE
:100990000FB60F9211242F933F934F935F936F9352
:1009A0007F938F939F93AF93BF93EF93FF93E091C8
:1009B000A001F091A101309709F00995FF91EF9105
:1009C000BF91AF919F918F917F916F915F914F9167
:1009D0003F912F910F900FBE0F901F9018951F926F
:1009E0000F920FB60F9211242F933F934F935F9363
:1009F0006F937F938F939F93AF93BF93EF93FF93E7
:100A0000E091A201F091A301309709F00995FF91BF
:100A1000EF91BF91AF919F918F917F916F915F9176
:100A20004F913F912F910F900FBE0F901F901895EF
:100A30001F920F920FB60F9211242F933F934F9353
:100A40005F936F937F938F939F93AF93BF93EF9336
:100A5000FF93E091A401F091A501309709F0099569
:100A6000FF91EF91BF91AF919F918F917F916F9186
:100A70005F914F913F912F910F900FBE0F901F905C
:100A800018951F920F920FB60F9211242F933F9338
:100A90004F935F936F937F938F939F93AF93BF9386
:100AA000EF93FF93E091A601F091A701309709F031
:100AB0000995FF91EF91BF91AF919F918F917F9198
:100AC0006F915F914F913F912F910F900FBE0F90BB
:100AD0001F9018951F920F920FB60F9211242F930B
:100AE0003F934F935F936F937F938F939F93AF93B6
:100AF000BF93EF93FF93E091A801F091A901309784
:100B000009F00995FF91EF91BF91AF919F918F915E
:100B10007F916F915F914F913F912F910F900FBEF9
:100B20000F901F901895CF93DF93EC01892BD1F193
:100B300088819981AA81BB810097A105B10591F1B6
:100B40009C01AD0184E0220F331F441F551F8A957D
:100B5000D1F760E074E284EF90E00E946B0D2150C9
:100B60003109832F8F7080BD29B98E818295807362
:100B70009885990F990F990F9870892B80689C819F
:100B8000990F9670892B80BD8C819D81079741F4C8
:100B9000529A539A549A90E080E0DF91CF91089551
:100BA0005298F7CF81E090E0F8CF53985498579837
:100BB000569855981092AB011092AA0190E080E0EF
:100BC00008955D9BFECF8CB990E080E0089500977A
:100BD00041F05F9BFECF2CB1FC01208390E080E0D0
:100BE000089581E090E00895009741F05F9B06C072
:100BF0002CB1FC01208390E080E0089581E090E03A
:100C00000895CF93DF93EC01892B29F481E090E0E4
:100C100007C00E94E10589918111FBCF90E080E03F
:100C2000DF91CF9108950097D9F061157105C1F05A
:100C3000FC0130E020E0615071092617370738F0D9
:100C4000820F931FFC01108290E080E008955F9B6B
:100C5000FECF5CB14517A1F351932F5F3F4FEDCF0E
:100C600081E090E00895009741F09093AB0180936C
:100C7000AA01579A90E080E0089581E090E00895FD
:100C80001F920F920FB60F9211242F933F934F9301
:100C90005F936F937F938F939F93AF93BF93EF93E4
:100CA000FF938CB1E091AA01F091AB01309709F06C
:100CB0000995FF91EF91BF91AF919F918F917F9196
:100CC0006F915F914F913F912F910F900FBE0F90B9
:100CD0001F901895DB01FA0182309105A1F028F4EC
:100CE000019761F01C92108208958330910579F08C
:100CF0000497C1F783E08C9387E003C081E08C9375
:100D000083E08083089583E08C9385E0FACF83E0CD
:100D10008C9384E0F6CF8230910561F018F401974E
:100D200039F008958330910549F0049759F00895FA
:100D30006CBF089570E07BBD6ABD089570E079BD19
:100D400068BD089563BD0895EF92FF921F93CF93FE
:100D5000DF93EC017B01CB01019710E040E0833091
:100D6000910540F4FC01E157FF4F4081FC01E4573D
:100D7000FF4F10812885222329F0029718F4842F31
:100D8000412F182F698188810E948902412F6B8130
:100D90008A810E948902FC86EB86DF91CF911F91A8
:100DA000FF90EF9008958230910591F018F401972B
:100DB00039F008958330910599F00497C1F00895B2
:100DC00083B7662319F0806283BF08958F7DFCCFBF
:100DD0008FB5662319F080688FBD08958F77FCCF9B
:100DE0008FB5662311F08062F7CF8F7DF5CF85B583
:100DF000662319F0806285BD08958F7DFCCF0F9327
:100E00001F93CF93DF9300D0CDB7DEB78C011A824A
:100E10001982FC0186819781009789F441E08285DF
:100E2000811101C040E0F801658184810E9489023E
:100E30000F900F90DF91CF911F910F910895AE0108
:100E40004F5F5F4FBE016E5F7F4F0E946A06F801E1
:100E5000828526813781811108C060E0C9010E9426
:100E6000D30640E069818A81E1CFFFEF8F9FC00107
:100E7000112464E670E00E94570DC9010E948B06A0
:100E800061E0F801868197810E94D306D1CF0F934C
:100E90001F93CF93DF9300D0CDB7DEB7FC011A824A
:100EA0001982892B49F481E090E00F900F90DF9137
:100EB000CF911F910F91089580818430A0F7928186
:100EC000943088F7268137812530310560F78F010E
:100ED00041E061810E94E20141E0F8016381828189
:100EE0000E94E20140E0F801618180810E94890254
:100EF00040E0F801638182810E948902F8018681C5
:100F000097810097E1F48481843068F641E065813F
:100F10000E94E20140E0F801658184810E9489021B
:100F2000F801128681E0818770E060E0C8010E94CC
:100F3000A406C8010E94FF0690E080E0B6CFAE0193
:100F40004F5F5F4FBE016E5F7F4F0E946A0641E0B8
:100F500069818A810E94E20140E069818A810E9460
:100F60008902F801868197818430910560F482308E
:100F7000910598F4019769F060E0F8018681978106
:100F80000E94D306CDCF0497B9F78CE485BD13BC7E
:100F9000F3CF8BE483BF1CBEEFCF8FB581608FBDD5
:100FA0008EB588608EBD8EB582608EBD8EB5816037
:100FB0008EBDE2CF009771F0FC012185222351F014
:100FC000653608F064E6FC0162870E94FF0690E047
:100FD00080E0089581E090E00895CF93DF9300973B
:100FE00089F0FC012185222369F0EC0161E070E0C9
:100FF0000E94A406CE010E94FF0690E080E0DF91EF
:10100000CF91089581E090E0FACFCF93DF930097DE
:1010100089F0FC012185222369F0EC0162E070E097
:101020000E94A406CE010E94FF0690E080E0DF91BE
:10103000CF91089581E090E0FACF009769F0FC012C
:101040002185222349F06230710530F4672B11F4B9
:101050000C94ED070C94050881E090E008950F933F
:101060001F93CF93DF9300D0CDB7DEB71A821982DA
:10107000009771F1FC012185222351F18C0170E070
:1010800060E00E94A406F80186819781009771F4C0
:1010900040E0658184810E94890290E080E00F90A9
:1010A0000F90DF91CF911F910F910895AE014F5F87
:1010B0005F4FBE016E5F7F4F0E946A0660E0F801DD
:1010C000868197810E94D30640E069818A81E3CFBF
:1010D00081E090E0E4CFCF93DF93009701F1FC0132
:1010E00021852223E1F0EC0163E070E00E94A40678
:1010F0008E819F81009751F441E06D818C810E9427
:10110000890290E080E0DF91CF9108956FEF0E9417
:101110008B0661E08E819F810E94D306F2CF81E031
:1011200090E0F1CF009779F0FC012185222359F05E
:101130006115710541F083859485FB01918380835E
:1011400090E080E0089581E090E00895009769F0D4
:10115000FC012185222349F06115710531F082855A
:10116000FB01808390E080E0089581E090E00895A5
:101170000F931F93CF93DF9300D0CDB7DEB71A82C2
:101180001982009789F1FC012185222369F18C01E4
:101190000E942F08F801868197810097C9F0AE015F
:1011A0004F5F5F4FBE016E5F7F4F0E946A0660E037
:1011B000F801868197810E94D30660E0F80186815C
:1011C00097810E948B0640E069818A810E94890292
:1011D000F8011286118690E080E00F900F90DF9169
:1011E000CF911F910F91089581E090E0F6CFCF92BB
:1011F000DF92EF92FF920F931F93CF93DF938C01B7
:10120000C62F6A0179010E94CF02892B49F4F801A7
:101210008081880F0E94D502892B29F00E94D2027A
:1012200001E010E00EC08C2F0E94D5028C01E60177
:10123000EC0CFD1C892B91F7CE15DF0561F40E94A3
:10124000D202C801DF91CF911F910F91FF90EF90D3
:10125000DF90CF90089589910E94D502892B61F388
:10126000DDCFCF93DF931F92CDB7DEB769830097B1
:1012700091F021E030E0AE014F5F5F4F60E00E94EF
:10128000F708E7ECF0E03197F1F700C000000F90AD
:10129000DF91CF91089581E090E0F9CFEF92FF9236
:1012A0001F93CF93DF93EC01892B51F4EE24E39449
:1012B000F12CC701DF91CF911F91FF90EF9008951E
:1012C000888187FDF3CF8981882381F39A819923CF
:1012D00069F3853058F71B822FEF80E792E02150A9
:1012E00080409040E1F700C00000898118E382301F
:1012F00008F410E3612FCE010E9431097C01892B93
:10130000A9F68FE19EE40197F1F700C00000612F7C
:10131000CE010E9431098FE193E00197F1F700C0FF
:101320000000612FCE010E9431098FE193E0019707
:10133000F1F700C0000088E08C8368E0CE010E94D5
:10134000310961E0CE010E9431098FE39FE10197ED
:10135000F1F700C0000086E08D8366E0CE010E94B8
:1013600031098CE08C836CE0CE010E9431091E8231
:101370001F8281E08B839DCFCF93DF931F92CDB7E8
:10138000DEB769830097B1F0FC012381222391F03D
:1013900021E030E0AE014F5F5F4F60E40E94F7084C
:1013A000E7ECF0E03197F1F700C000000F90DF911B
:1013B000CF91089581E090E0F9CFAB010097A1F0C3
:1013C000FC012381222381F06115710569F0FB0185
:1013D0009F01241B350B61916111FACF2115310555
:1013E00031F060E40C94F70881E090E0089590E01B
:1013F00080E008954F925F926F927F92AF92BF927A
:10140000CF92DF92EF92FF920F931F93CF93DF93D0
:10141000CDB7DEB766970FB6F894DEBF0FBECDBF6F
:10142000FC01892B09F478C02381222309F474C0BC
:10143000DB01CA018F010097A105B105C9F460E382
:10144000CF010E94BC0966960FB6F894DEBF0FBEAE
:10145000CDBFDF91CF911F910F91FF90EF90DF9063
:10146000CF90BF90AF907F906F905F904F90089516
:10147000B7FF19C02DE229839A01AB0166277727B0
:10148000CB01621B730B840B950BAA24A3946E01F2
:10149000FDE0CF0ED11CB12C76012AE0422E512C5A
:1014A000612C712C12C0BA01CD01A12CF0CF2AE021
:1014B000B21681F0A30192010E946B0D605DF601EE
:1014C00061936F01B901CA01B3946115710581057A
:1014D000910569F78B2DAB0C2A2D281B30E081116B
:1014E0000DC041E050E04C0F5D1F240F351FF90186
:1014F0001082BA01C8010E94DD09A5CF815041E0E8
:1015000050E04C0F5D1F240F351FF701E80FF11D50
:101510009081F9019083E0CF81E090E094CF0F9328
:101520001F93CF93DF93EC01892B39F481E090E096
:10153000DF91CF911F910F9108958B818823B1F393
:101540008981681798F79A81491780F7623039F0D6
:10155000905C633021F090E4613009F090E0042F5A
:10156000162F940F692F6068CE010E9431090097F1
:10157000E9F61E830F83DCCF0F931F93CF93DF9386
:10158000EC0189010E948F0A892B41F4B801CE0138
:10159000DF91CF911F910F910C94DD0981E090E0D4
:1015A000DF91CF911F910F910895CF93DF93009713
:1015B00029F481E090E0DF91CF910895FC0123812F
:1015C0002223B9F3EC0161E00E943109009789F709
:1015D000EFE3FFE13197F1F700C000001E821F82A8
:1015E000EACFCF93DF93009729F481E090E0DF9179
:1015F000CF910895FC0123812223B9F3EC0162E02D
:101600000E943109009789F7EFE3FFE13197F1F785
:1016100000C000001E821F82EACFFC01892B71F0FE
:101620008381882359F08481662331F08460848328
:101630006481CF010C9431098B7FF9CF81E090E078
:101640000895FC01892B71F08381882359F08481EE
:10165000662331F0826084836481CF010C94310968
:101660008D7FF9CF81E090E00895FC01892B71F026
:101670008381882359F08481662331F081608483DB
:101680006481CF010C9431098E7FF9CF81E090E025
:101690000895009759F0FC012381222339F0662335
:1016A00019F06CE10C94310968E1FCCF81E090E025
:1016B0000895EF92FF920F931F93CF93DF93CDB7CF
:1016C000DEB728970FB6F894DEBF0FBECDBF0097E8
:1016D00079F481E090E028960FB6F894DEBF0FBE53
:1016E000CDBFDF91CF911F910F91FF90EF900895A3
:1016F000FC012381222369F34115510551F3683020
:1017000040F78A017C01660F660F660F60640E94D5
:101710003109892BF1F6F801DE0111969801285F55
:101720003F4FAD0181918F718D93E217F307D1F790
:1017300028E030E060E4C7010E94F708892B49F6F1
:1017400040E060E0C7010E948F0AC5CFCF93DF93CE
:1017500000D0CDB7DEB781E0898386E08A83CE01F1
:1017600001960E9479010F900F90DF91CF9108951B
:101770000F931F93CF93DF93009739F481E090E0AC
:10178000DF91CF911F910F91089561157105B1F30C
:101790004115510599F3EA018B01BC0180E00E94DB
:1017A000CF01892B59F7B80181E00E94CF01892B25
:1017B00029F7BE0182E00E94CF0131E020E0892BB1
:1017C00009F430E0832F922FDBCFCF93DF93EB012F
:1017D0002097A9F09C01A2E3B0E00E948D0D61501A
:1017E0007E4F8F4F9F4F2FEF33E040E050E00E943D
:1017F0006B0D288390E080E0DF91CF91089581E028
:1018000090E0FACFCF93DF93EB012097A9F09C01F2
:10181000A4E6B0E00E948D0D61507E4F8F4F9F4F28
:101820002FEF33E040E050E00E946B0D288390E002
:1018300080E0DF91CF91089581E090E0FACFECEA6B
:10184000F1E01182108213821282158214821682B4
:10185000379681E0E43EF807A1F790E080E0089534
:101860009C01892B69F16115710551F1CB01099634
:101870006AE070E00E94570D6115710511F461E096
:1018800070E0ECEAF1E090E080E04681411113C0A5
:1018900047E0489FF001499FF00D1124E455FE4FA9
:1018A00031832083738362837583648381E08683BD
:1018B00090E080E00895019637968830910529F7E9
:1018C00081E090E008958091E4019091E501019616
:1018D0009093E5018093E40108950F931F93CF93B4
:1018E000DF938091E4019091E501892B79F00E94CA
:1018F00099040091E4011091E5011092E501109224
:10190000E4010E9495040150110928F4DF91CF9160
:101910001F910F910895CCEAD1E08E81882391F038
:101920008C819D81009719F001979D838C838C8118
:101930009D81892B39F4E881F98109958A819B8100
:101940009D838C83279681E0C43ED80731F7DBCF97
:10195000CF93DF93CDB7DEB7A4970FB6F894DEBF71
:101960000FBECDBF8AE0E0E6F0E0DE015B960190BD
:101970000D928A95E1F78E01025F1F4F8DE0D8012D
:101980001D928A95E9F7FE01359689E0DF011D92E7
:101990008A95E9F782E08E87888B91E0998B22E027
:1019A00030E03D8B2C8B89838A838B8383E08C830F
:1019B00083E090E098878F83CE014B960E94930539
:1019C000C8010E944707892B29F082E990E00E9414
:1019D0007300FFCFCE0101960E944707892B29F0A3
:1019E0008FEA90E00E947300FFCF8DEC90E00E94A0
:1019F000730080EE90E00E94730066E4C8010E94CC
:101A0000DA0766E4CE0101960E94DA07C8010E9457
:101A1000ED07CE0101960E94ED0780ED97E00E9450
:101A2000490088EE90E00E947300C8010E942F08D0
:101A3000CE0101960E942F0888EE93E00E94490093
:101A40008DEE90E00E94730066E4C8010E94DA0700
:101A500066E4CE0101960E94DA07C8010E940508DB
:101A6000CE0101960E94050880ED97E00E94490092
:101A700086EF90E00E947300C8010E946B08CE01BF
:101A800001960E946B0888EE93E00E94490088EE60
:101A900090E00E947300C8010E942F08CE010196B9
:101AA0000E942F0888EE93E00E944900A2CFAA1B53
:101AB000BB1B51E107C0AA1FBB1FA617B70710F039
:101AC000A61BB70B881F991F5A95A9F7809590956B
:101AD000BC01CD010895A1E21A2EAA1BBB1BFD017A
:101AE0000DC0AA1FBB1FEE1FFF1FA217B307E407FD
:101AF000F50720F0A21BB30BE40BF50B661F771F55
:101B0000881F991F1A9469F7609570958095909534
:101B10009B01AC01BD01CF010895A29FB001B39F0D
:101B2000C001A39F700D811D1124911DB29F700DE6
:0C1B3000811D1124911D0895F894FFCF31
:101B3C008025000003000000000030303030300001
:101B4C0080250000030000000000000001000500DB
:101B5C0000009B003A003700340031000001010105
:101B6C0000014D6F746F7220746573743A206C654C
:101B7C00667420696E6974206661696C6564004DD9
:101B8C006F746F7220746573743A2072696768742D
:101B9C0020696E6974206661696C6564004D6F74B0
:101BAC006F72207465737420737461727465640051
:101BBC00466F72776172640053746F700042616398
:101BCC006B77617264004272616B65003000526128
:101BDC00772054656D703A200054656D7020433A3F
:101BEC00202000536F696C20253A2020004C696737
:101BFC00687420253A20002D2D2D2D2D2D0D0A0039
:101C0C0053656E736F722072656164206661696CD6
:101C1C0065640D0A0053656E736F7220696E69748A
:101C2C00206661696C65640D0A0054696D657220EB
:101C3C00696E6974206661696C65640D0A00536392
:101C4C00686564756C6572207461736B2061646483
:101C5C00206661696C65640D0A0053636865647580
:0E1C6C006C65722072756E6E696E670D0A00EF
:00000001FF
