:100000000C942A000C943F000C943F000C943F0089
:100010000C943F000C943F000C943F000C943F0064
:100020000C943F000C943F000C943F000C943F0054
:100030000C943F000C943F000C943F000C943F0044
:100040000C943F000C943F000C943F000C943F0034
:100050000C943F0011241FBECFE5D8E0DEBFCDBF1A
:1000600010E0A0E6B0E0E2E4F1E002C005900D92FD
:10007000A836B107D9F70E9496000C949F000C9403
:100080000000843030F4683020F4442329F04130FB
:10009000C9F081E090E00895E82FF0E0EE0FFF1F37
:1000A000E05AFF4F0190F081E02D208181E090E047
:1000B00001C0880F6A95EAF780958223808390E0DB
:1000C00080E00895E82FF0E0EE0FFF1FE05AFF4FA9
:1000D0000190F081E02D808121E030E001C0220F0D
:1000E0006A95EAF7822BEACF843020F4662329F060
:1000F000613081F081E090E00895E82FF0E0EE0FAC
:10010000FF1FE05AFF4F0190F081E02D108290E038
:1001100080E00895E82FF0E0EE0FFF1FE05AFF4F58
:100120000190F081E02D8FEF8083F1CF61E080E0DE
:100130000E94740085E58BBB90E080E00895F89400
:02014000FFCFEF
:080142003A00370034003100DF
:00000001FF
